:020000020000FC
:040000000C9400015B
:040028000C9428010B
:040040000C942401F7
:10020000F89408E00EBF0FE50DBF929A00E40BBF13
:100210000AE806B900EC07B9369A00E109BF00E028
:100220000FBD0DE00EBD00E00BBD08EC0ABD00E007
:1002300070E380E390E3A0E0B0E00E944B010E94F5
:10024000450178940C942201A4B1B5B1369A189561
:10025000B695A795B695A7954A2F0E943001189597
:1002600020EC0E946F010E948E010E949C01292FA8
:100270000E9479010E948E01282F0E9479010E941C
:100280008E01272F0E947901089530E8F3E0ECE217
:100290000E94620108950FEF04BB01BB93980E9476
:1002A0008E0128E30E946F010E948E012CE00E94C3
:1002B0006F0121E00E946F010E948E0126E00E94E2
:1002C0006F010895232F0E946F010E946801089515
:1002D0002591203019F00E947901FACF089525BBAD
:1002E00095989498939A0E94830193980E9486010E
:1002F000089525BB959A9498939A0E9483019398A8
:100300000E94860108950000000008951F931CE3D9
:100310000E9483011A95E1F71F9108951F9314E13C
:100320000E9486011A95E1F71F9108954465666C55
:10033000656374696F6E3A005AE016D04063742F9B
:10034000462F12D04063842F6063962F0895A0E15A
:10035000B2E05AE009D040634D93462F05D0406388
:100360004D9360636D93089560E06395451BE8F7D6
:060370006A95450F089597
:00000001FF
