:020000020000FC
:080000000C9400010C940001B6
:040028000C946901CA
:040040000C946401B7
:10020000F89408E00EBF0FE50DBF929A00E40BBF13
:100210000FE806B900EC07B9369A00E109BF00E023
:100220000FBD0DE00EBD00E00BBD08EC0ABD00E007
:1002300060E070E040E00E9475010E948C017894BB
:1002400045FF0E946B0146FD0E9428010C9420018D
:100250000E947001582F0E947902009112020093AF
:1002600030020091110200933102009110020093BC
:10027000320200E20093330203E70093340204E702
:100280000093350205E60093360200E7009337023B
:1002900003E70093380200E20093390200E2009382
:1002A0003A0200E200933B0200E200933C0200E2CB
:1002B00000933D0200E200933E0200E200933F0201
:1002C0000E9405024F7B089564B175B1369A406271
:1002D0001895406418950E947001862F4F770895F5
:1002E000769567957695679508950FEF04BB01BBEA
:1002F00093980E94710238E30E9452020E94710298
:100300003CE00E94520231E00E9452020E947102BF
:1003100036E00E945202089504E40093200205E6AC
:100320000093210206E6009322020CE600932302CA
:1003300005E60093240203E60093250204E70093F8
:10034000260209E6009327020FE6009328020EE634
:10035000009329020AE300932A0200E200932B0291
:1003600000E200932C0200E200932D0200E20093D1
:100370002E0200E200932F020E94BF01089530E890
:100380000E9452020E947102309120020E945C027F
:10039000309121020E945C02309122020E945C0294
:1003A000309123020E945C02309124020E945C0280
:1003B000309125020E945C02309126020E945C026C
:1003C000309127020E945C02309128020E945C0258
:1003D000309129020E945C0230912A020E945C0244
:1003E00030912B020E945C0230912C020E945C0230
:1003F00030912D020E945C0230912E020E945C021C
:1004000030912F020E945C02089530EC0E9452024B
:100410000E947102309130020E945C0230913102E0
:100420000E945C02309132020E945C0230913302E1
:100430000E945C02309134020E945C0230913502CD
:100440000E945C02309136020E945C0230913702B9
:100450000E945C02309138020E945C0230913902A5
:100460000E945C0230913A020E945C0230913B0291
:100470000E945C0230913C020E945C0230913D027D
:100480000E945C0230913E020E945C0230913F0269
:100490000E945C0208953591303019F00E945C0290
:1004A000FACF089535BB95989498939A0E94660266
:1004B00093980E946902089535BB959A9498939AEF
:1004C0000E94660293980E9469020895000000004D
:1004D00008952F932CE30E9466022A95E1F72F914D
:1004E00008952F9324E10E9469022A95E1F72F9144
:1004F00008950AE00CD0506350931002512F07D09A
:10050000506350931102106310931202089510E08B
:0C0510001395501BE8F71A95500F089542
:00000001FF
