:020000020000FC
:040000000C9400015B
:040028000C9428010B
:040040000C942401F7
:10020000F89408E00EBF0FE50DBF929A00E40BBF13
:100210000AE806B900EC07B9369A00E109BF00E028
:100220000FBD0DE00EBD00E00BBD08EC0ABD00E007
:1002300070E380E390E3A0E0B0E00E944C010E94F4
:10024000460178940C942201A4B1B5B1369A189560
:10025000B695A795B695A7954A2F0E943001189597
:1002600020EC0E9470010E948F014FEF0E949D01BF
:10027000292F0E947A010E948F01282F0E947A0163
:100280000E948F01272F0E947A01089530E8F3E041
:10029000EEE20E94630108950FEF04BB01BB939847
:1002A0000E948F0128E30E9470010E948F012CE0C0
:1002B0000E94700121E00E9470010E948F0126E0DF
:1002C0000E9470010895232F0E9470010E9469010D
:1002D00008952591203019F00E947A01FACF0895EF
:1002E00025BB95989498939A0E94840193980E94B4
:1002F0008701089525BB959A9498939A0E9484014A
:1003000093980E94870108950000000008951F93AC
:100310001CE30E9484011A95E1F71F9108951F9331
:1003200014E10E9487011A95E1F71F910895446531
:10033000666C656374696F6E3A005AE016D040636C
:10034000742F462F12D04063842F6063962F089538
:10035000A0E1B2E05AE009D040634D93462F05D0AA
:1003600040634D9360636D93089560E06395451B12
:08037000E8F76A95450F0895B6
:00000001FF
