:020000020000FC
:040000000C9400015B
:040028000C943601FD
:040040000C942F01EC
:10020000F89408E00EBF0FE50DBF929A00E40BBF13
:100210000AE806B900EC07B9369A00E109BF00E028
:100220000FBD0DE00EBD00E00BBD08EC0ABD00E007
:1002300070E380E390E3A0E0B0E0F0E00E945901B9
:100240000E9453017894F6FD0E9438010C9423011A
:10025000B695A795B695A795AC2FFF770895A4B14D
:10026000B5B1F7FD0E942801369A1895F0641895EB
:10027000B695A795B695A7954A2F20EC0E947D01CB
:100280000E949C010E94AA01292F0E9487010E94BE
:100290009C01282F0E9487010E949C01272F0E9409
:1002A0008701FF7B089530E8F3E0E8E40E947001E5
:1002B00008950FEF04BB01BB93980E949C0128E3B3
:1002C0000E947D010E949C012CE00E947D0121E0A2
:1002D0000E947D010E949C0126E00E947D010895FC
:1002E000232F0E947D010E947601089525912030E0
:1002F00019F00E948701FACF089525BB959894982C
:10030000939A0E94910193980E949401089525BBAD
:10031000959A9498939A0E94910193980E949401BF
:1003200008950000000008951F931CE30E949101AE
:100330001A95E1F71F9108951F9314E10E9494010B
:100340001A95E1F71F9108954465666C65637469B9
:100350006F6E3A005AE014D04063742F462F10D0CD
:100360004063842F6063962F08955AE009D040635C
:100370004D93462F05D040634D9360636D93089570
:0E03800060E06395451BE8F76A95450F089508
:00000001FF
