:020000020000FC
:080000000C9400010C940001B6
:040028000C946501CE
:040040000C945801C3
:10020000F89408E00EBF0FE50DBF929A00E40BBF13
:100210000FE806B900EC07B9369A00E109BF00E023
:100220000FBD0DE00EBD00E00BBD08EC0ABD00E007
:10023000F0E00E9467010E947E017894F6FD0E9422
:1002400023010C941E0120911002109111020E94B2
:100250006B0200E20093300250933102609332024D
:1002600070933302809334029093350206E5009335
:1002700036020EE20093370200E20093380200E2F9
:100280000093390200E200933A0200E200933B023D
:1002900000E200933C0200E200933D0200E2009382
:1002A0003E0200E200933F020E94F701FF7B0895A7
:1002B0000F93CF9304B1C5B100931102C093100204
:1002C000F062CF910F91369A1895F06418950FEF60
:1002D00004BB01BB93980E946302E8E30E944402BE
:1002E0000E946302ECE00E944402E1E00E944402AA
:1002F0000E946302E6E00E944402089504E4009331
:10030000200205E60093210206E6009322020CE695
:100310000093230205E60093240203E600932502DE
:1003200004E70093260209E6009327020FE60093F4
:1003300028020EE6009329020AE300932A0200E253
:1003400000932B0200E200932C0200E200932D02A6
:1003500000E200932E0200E200932F020E94B101FE
:100360000895E0E80E9444020E946302E0912002A6
:100370000E944E02E09121020E944E02E091220270
:100380000E944E02E09123020E944E02E09124025C
:100390000E944E02E09125020E944E02E091260248
:1003A0000E944E02E09127020E944E02E091280234
:1003B0000E944E02E09129020E944E02E0912A0220
:1003C0000E944E02E0912B020E944E02E0912C020C
:1003D0000E944E02E0912D020E944E02E0912E02F8
:1003E0000E944E02E0912F020E944E020895E0EC1E
:1003F0000E9444020E946302E09130020E944E0279
:10040000E09131020E944E02E09132020E944E02BF
:10041000E09133020E944E02E09134020E944E02AB
:10042000E09135020E944E02E09136020E944E0297
:10043000E09137020E944E02E09138020E944E0283
:10044000E09139020E944E02E0913A020E944E026F
:10045000E0913B020E944E02E0913C020E944E025B
:10046000E0913D020E944E02E0913E020E944E0247
:10047000E0913F020E944E020895E591E03019F0AC
:100480000E944E02FACF0895E5BB95989498939AEE
:100490000E94580293980E945B020895E5BB959ACA
:1004A0009498939A0E94580293980E945B02089530
:1004B000000000000895DF93DCE30E945802DA9503
:1004C000E1F7DF910895DF93D4E10E945B02DA95B2
:1004D000E1F7DF9108950FD020F010D02AD030D06E
:1004E00005C005E4502F702F802F902F0CE2602F55
:1004F0000027A02F089503E002170895662704E05F
:10050000502F03EE402F08E3302FAA279927882782
:100510007727012F022B09F408952695179520F4CB
:10052000730F841F951FA61F330F441F551F661F8F
:10053000F0CF0027880F901FA01F2A2F192F089592
:1005400003E0402F08EE302F0ED0502F442704E652
:10055000302F09D0702F0AE0302F05D0802F00E314
:10056000010F902F089500E31317240708F408954E
:08057000131B240B0395F8CFC7
:00000001FF
