:020000020000FC
:080000000C9400010C940001B6
:040028000C947A01B9
:040040000C947501A6
:10020000F89408E00EBF0FE50DBF929A00E40BBF13
:100210000FE806B900EC07B9369A00E109BF00E023
:100220000FBD0DE00EBD00E00BBD08EC0ABD00E007
:1002300060E070E040E00E9486010E949D01789499
:1002400045FF0E947C0146FD0E9436010C9420016E
:10025000581728F0581B00E20093130206C0082F1D
:10026000051B502F0DE20093130208950E94810197
:10027000562F0E9428010E948A02009113020093C7
:10028000300200911202009331020091110200939A
:100290003202009110020093330200E20093340214
:1002A00003E70093350204E70093360205E6009366
:1002B000370200E70093380203E70093390200E2B7
:1002C00000933A0200E200933B0200E200933C02FA
:1002D00000E200933D0200E200933E0200E2009340
:1002E0003F020E9416024F7B089564B175B1369AA1
:1002F00040621895406418950E948101862F4F77BF
:100300000895769567957695679508950FEF04BBE8
:1003100001BB93980E94820238E30E9463020E940C
:1003200082023CE00E94630231E00E9463020E946C
:10033000820236E00E946302089504E400932002E2
:1003400005E60093210206E6009322020CE60093E4
:10035000230205E60093240203E60093250204E746
:100360000093260209E6009327020FE60093280275
:100370000EE6009329020AE300932A0200E20093AA
:100380002B0200E200932C0200E200932D0200E217
:1003900000932E0200E200932F020E94D0010895E4
:1003A00030E80E9463020E948202309120020E9483
:1003B0006D02309121020E946D02309122020E9452
:1003C0006D02309123020E946D02309124020E943E
:1003D0006D02309125020E946D02309126020E942A
:1003E0006D02309127020E946D02309128020E9416
:1003F0006D02309129020E946D0230912A020E9402
:100400006D0230912B020E946D0230912C020E94ED
:100410006D0230912D020E946D0230912E020E94D9
:100420006D0230912F020E946D02089530EC0E94FF
:1004300063020E948202309130020E946D0230916C
:1004400031020E946D02309132020E946D023091A1
:1004500033020E946D02309134020E946D0230918D
:1004600035020E946D02309136020E946D02309179
:1004700037020E946D02309138020E946D02309165
:1004800039020E946D0230913A020E946D02309151
:100490003B020E946D0230913C020E946D0230913D
:1004A0003D020E946D0230913E020E946D02309129
:1004B0003F020E946D0208953591303019F00E947C
:1004C0006D02FACF089535BB95989498939A0E943F
:1004D000770293980E947A02089535BB959A949872
:1004E000939A0E94770293980E947A0208950000DE
:1004F000000008952F932CE30E9477022A95E1F7DC
:100500002F9108952F9324E10E947A022A95E1F712
:100510002F9108950AE00CD0506350931002512F90
:1005200007D0506350931102106310931202089584
:0E05300010E01395501BE8F71A95500F089530
:00000001FF
