:020000020000FC
:040000000C9400015B
:040028000C943701FC
:040040000C943201E9
:10020000F89408E00EBF0FE50DBF929A00E40BBF13
:100210000AE806B900EC07B9369A00E109BF00E028
:100220000FBD0DE00EBD00E00BBD08EC0ABD00E007
:1002300070E380E390E3A0E0B0E0F0E00E945B01B7
:100240000E9455017894F5FF0E942B01F6FD0E9453
:1002500039010C942301B695A795B695A795CA2F99
:10026000FF770895A4B1B5B1369AF0621895F0649D
:100270001895B695A795B695A7954A2F4C1B20ECD7
:100280000E947F010E949E010E94AC01292F0E94C2
:1002900089010E949E01282F0E9489010E949E01CF
:1002A000272F0E948901FF7B089530E8F3E0ECE4FA
:1002B0000E94720108950FEF04BB01BB93980E9446
:1002C0009E0128E30E947F010E949E012CE00E9473
:1002D0007F0121E00E947F010E949E0126E00E9492
:1002E0007F010895232F0E947F010E9478010895C5
:1002F0002591203019F00E948901FACF089525BB7D
:1003000095989498939A0E94930193980E949601CD
:10031000089525BB959A9498939A0E949301939877
:100320000E94960108950000000008951F931CE3A9
:100330000E9493011A95E1F71F9108951F9314E10C
:100340000E9496011A95E1F71F9108954465666C25
:10035000656374696F6E3A005AE014D04063742F7D
:10036000462F10D04063842F6063962F08955AE083
:1003700009D040634D93462F05D040634D93606391
:100380006D93089560E06395451BE8F76A95450F06
:020390000895CE
:00000001FF
