:020000020000FC
:080000000C9400010C940001B6
:040028000C943701FC
:040040000C943201E9
:10020000F89408E00EBF0FE50DBF929A00E40BBF13
:100210000AE806B900EC07B9369A00E109BF00E028
:100220000FBD0DE00EBD03E00BBD08EE0ABD00E002
:1002300070E380E390E3A0E0B0E0D0E00E946C01C6
:100240000E9466017894D5FF0E942B01D6FD0E9482
:1002500039010C942301B695A795B695A795CA2F99
:10026000DF770895A4B1B5B1369AD0621895D064FD
:100270001895B695A795B695A7954A2F20EC0E949C
:1002800090010E94AF014C1710F04C1B05C0F3E029
:10029000EAE70E94890100C00E944F0108950E9470
:1002A000BF01292F0E949A010E94AF01282F0E94AE
:1002B0009A010E94AF01272F0E949A010E94AF016C
:1002C000F3E0ECE70E948901DF7B089530E8F3E07A
:1002D000EEE60E94830108950FEF04BB01BB9398E3
:1002E0000E94AF0128E30E9490010E94AF012CE020
:1002F0000E94900121E00E9490010E94AF0126E03F
:100300000E9490010895232F0E9490010E9489016C
:1003100008952591203019F00E949A01FACF08958E
:1003200025BB95989498939A0E94A40193980E9453
:10033000A701089525BB959A9498939A0E94A401C9
:1003400093980E94A70108950000000008951F934C
:100350001CE30E94A4011A95E1F71F9108951F93D1
:1003600014E10E94A7011A95E1F71F9108954465D1
:10037000666C656374696F6E3A002D0020005AE068
:1003800014D04063742F462F10D04063842F6063D5
:10039000962F08955AE009D040634D93462F05D01B
:1003A00040634D9360636D93089560E06395451BD2
:0803B000E8F76A95450F089576
:00000001FF
