:020000020000FC
:080000000C9400010C940001B6
:1002000008E00EBF0FE50DBF0E943D010E940A01EC
:100210000C94080104E40093200205E600932102F7
:1002200006E6009322020CE60093230205E6009303
:10023000240203E60093250204E70093260209E660
:10024000009327020FE6009328020EE6009329028E
:100250000BE300932A0200E200932B0200E20093DA
:100260002C0200E200932D0200E200932E0200E235
:1002700000932E020E94540108950FEF04BB01BBAE
:1002800093980E94C60128E30E94A7010E94C6011C
:100290002CE00E94A70121E00E94A7010E94C60154
:1002A00026E00E94A701089520E80E94A7010E946D
:1002B000C601209120020E94B101209121020E94DA
:1002C000B101209122020E94B101209123020E94DB
:1002D000B101209124020E94B101209125020E94C7
:1002E000B101209126020E94B101209127020E94B3
:1002F000B101209128020E94B101209129020E949F
:10030000B10120912A020E94B10120912B020E948A
:10031000B10120912C020E94B10120912D020E9476
:10032000B10120912E020E94B10120912F020E9462
:10033000B1010895232F0E94A7010E94A0010895F2
:100340002591203019F00E94B101FACF089525BB04
:1003500095989498939A0E94BB0193980E94BE012D
:10036000089525BB959A9498939A0E94BB019398FF
:100370000E94BE0108950000000008951F931CE331
:100380000E94BB011A95E1F71F9108951F9314E194
:100390000E94BE011A95E1F71F9108954465666CAD
:1003A000656374696F6E3A202020202000002D00C4
:1003B00020005AE014D04063742F462F10D04063C1
:1003C000842F6063962F08955AE009D040634D93BF
:1003D000462F05D040634D9360636D93089560E0B0
:0C03E0006395451BE8F76A95450F0895EA
:00000001FF
