:020000020000FC
:080000000C9400010C940001B6
:040028000C946801CB
:040040000C945B01C0
:10020000F89408E00EBF0FE50DBF929A00E40BBF13
:100210000FE806B900EC07B9369A00E109BF00E023
:100220000FBD0DE00EBD00E00BBD08EC0ABD00E007
:10023000F0E00E9474010E948B017894F5FF0E9407
:100240006A01F6FD0E9426010C941E012091120203
:10025000109113020E94780200E200933002509342
:100260003102609332027093330280933402909390
:10027000350206E5009336020EE20093370200E2F3
:100280000093380200E20093390200E200933A0240
:1002900000E200933B0200E200933C0200E2009384
:1002A0003D0200E200933E0200E200933F020E9402
:1002B0000402FF7B08950F93CF9304B1C5B100935F
:1002C0001102C0931002F062CF910F91369A1895E7
:1002D000F06418950091100200931202009111022F
:1002E00000931302FF7708950FEF04BB01BB9398AF
:1002F0000E947002E8E30E9451020E947002ECE04A
:100300000E945102E1E00E9451020E947002E6E068
:100310000E945102089504E40093200205E6009330
:10032000210206E6009322020CE60093230205E672
:100330000093240203E60093250204E700932602BB
:1003400009E6009327020FE6009328020EE60093C9
:1003500029020AE300932A0200E200932B0200E242
:1003600000932C0200E200932D0200E200932E0283
:1003700000E200932F020E94BE010895E0E80E946F
:1003800051020E947002E09120020E945B02E09103
:1003900021020E945B02E09122020E945B02E09136
:1003A00023020E945B02E09124020E945B02E09122
:1003B00025020E945B02E09126020E945B02E0910E
:1003C00027020E945B02E09128020E945B02E091FA
:1003D00029020E945B02E0912A020E945B02E091E6
:1003E0002B020E945B02E0912C020E945B02E091D2
:1003F0002D020E945B02E0912E020E945B02E091BE
:100400002F020E945B020895E0EC0E9451020E94BC
:100410007002E09130020E945B02E09131020E9482
:100420005B02E09132020E945B02E09133020E9483
:100430005B02E09134020E945B02E09135020E946F
:100440005B02E09136020E945B02E09137020E945B
:100450005B02E09138020E945B02E09139020E9447
:100460005B02E0913A020E945B02E0913B020E9433
:100470005B02E0913C020E945B02E0913D020E941F
:100480005B02E0913E020E945B02E0913F020E940B
:100490005B020895E591E03019F00E945B02FACF0B
:1004A0000895E5BB95989498939A0E946502939855
:1004B0000E9468020895E5BB959A9498939A0E94C9
:1004C000650293980E946802089500000000089554
:1004D000DF93DCE30E946502DA95E1F7DF9108958E
:1004E000DF93D4E10E946802DA95E1F7DF91089585
:1004F0000FD020F010D02AD030D005C005E4502F06
:10050000702F802F902F0CE2602F0027A02F0895CE
:1005100003E002170895662704E0502F03EE402FF2
:1005200008E3302FAA27992788277727012F022B46
:1005300009F408952695179520F4730F841F951FCD
:10054000A61F330F441F551F661FF0CF0027880FCB
:10055000901FA01F2A2F192F089503E0402F08EEA7
:10056000302F0ED0502F442704E6302F09D0702FA3
:100570000AE0302F05D0802F00E3010F902F08955F
:1005800000E31317240708F40895131B240B0395A5
:02059000F8CFA2
:00000001FF
