:020000020000FC
:080000000C9400010C940001B6
:040028000C946A01C9
:040040000C945D01BE
:10020000F89408E00EBF0FE50DBF929A00E40BBF13
:100210000FE806B900EC07B9369A00E109BF00E023
:100220000FBD0DE00EBD00E00BBD08EC0ABD00E007
:10023000F0E000E2009314020E9490010E94A701E6
:100240007894F5FF0E946C01F6FD0E9429010C9440
:1002500021010E9476010E949402009114020093F1
:1002600030025093310260933202709333028093D4
:1002700034029093350206E5009336020EE20093B5
:10028000370200E20093380200E20093390200E2F4
:1002900000933A0200E200933B0200E200933C022A
:1002A00000E200933D0200E200933E0200E2009370
:1002B0003F020E942002FF7B08950F93CF9304B169
:1002C000C5B100931102C0931002F062CF910F915B
:1002D000369A1895F0641895009110020093120256
:1002E0000091110200931302FF770895009112020A
:1002F000C091130220911002109111021C172007C7
:1003000030F01C1B200B00E20093140208C0C11B3C
:10031000020B202F1C2F0DE20093140200C0089541
:100320000FEF04BB01BB93980E948C02E8E30E948C
:100330006D020E948C02ECE00E946D02E1E00E94DE
:100340006D020E948C02E6E00E946D02089504E4B2
:100350000093200205E60093210206E600932202A4
:100360000CE60093230205E60093240203E60093C3
:10037000250204E70093260209E6009327020FE610
:10038000009328020EE6009329020AE300932A0252
:1003900000E200932B0200E200932C0200E20093A3
:1003A0002D0200E200932E0200E200932F020E9431
:1003B000DA010895E0E80E946D020E948C02E0914B
:1003C00020020E947702E09121020E947702E091D0
:1003D00022020E947702E09123020E947702E091BC
:1003E00024020E947702E09125020E947702E091A8
:1003F00026020E947702E09127020E947702E09194
:1004000028020E947702E09129020E947702E0917F
:100410002A020E947702E0912B020E947702E0916B
:100420002C020E947702E0912D020E947702E09157
:100430002E020E947702E0912F020E947702089517
:10044000E0EC0E946D020E948C02E09130020E945A
:100450007702E09131020E947702E09132020E941D
:100460007702E09133020E947702E09134020E9409
:100470007702E09135020E947702E09136020E94F5
:100480007702E09137020E947702E09138020E94E1
:100490007702E09139020E947702E0913A020E94CD
:1004A0007702E0913B020E947702E0913C020E94B9
:1004B0007702E0913D020E947702E0913E020E94A5
:1004C0007702E0913F020E9477020895E591E030C3
:1004D00019F00E947702FACF0895E5BB9598949899
:1004E000939A0E94810293980E9484020895E5BB2A
:1004F000959A9498939A0E94810293980E948402FC
:100500000895000000000895DF93DCE30E9481025B
:10051000DA95E1F7DF910895DF93D4E10E94840238
:10052000DA95E1F7DF9108950FD020F010D02AD0AE
:1005300030D005C005E4502F702F802F902F0CE293
:10054000602F0027A02F089503E002170895662763
:1005500004E0502F03EE402F08E3302FAA279927FD
:1005600088277727012F022B09F4089526951795E0
:1005700020F4730F841F951FA61F330F441F551FB0
:10058000661FF0CF0027880F901FA01F2A2F192F5A
:10059000089503E0402F08EE302F0ED0502F44274F
:1005A00004E6302F09D0702F0AE0302F05D0802FBD
:1005B00000E3010F902F089500E31317240708F4B8
:0A05C0000895131B240B0395F8CFD8
:00000001FF
