:020000020000FC
:080000000C9400010C940001B6
:040028000C947801BB
:040040000C946B01B0
:10020000F89408E00EBF0FE50DBF929A00E40BBF13
:100210000FE806B900EC07B9369A00E109BF00E023
:100220000FBD0DE00EBD00E00BBD08EC0ABD00E007
:10023000F0E000E200931402009315020E94BE0158
:100240007894F5FF0E947A01F6FD0E9429010C9432
:1002500021010E94520100E2009328020E94340111
:100260000E940802FF7B08950E9484010E94C2023E
:1002700000E2009329020091150200932A020091E6
:10028000180200932B020091170200932C02009198
:10029000160200932D0200E200932E0203E5009364
:1002A0002F0208950E94A4010E94D7020091140217
:1002B0000093200250932102609322027093230244
:1002C000809324029093250200E20093260206E523
:1002D0000093270208950F93CF9304B1C5B1009303
:1002E0001102C0931002F062CF910F91369A1895C7
:1002F000F06418950091100200931202009111020F
:1003000000931302FF77089500911202C091130227
:100310000695C7950695C7956C2F00911002C09160
:1003200011020695C7950695C795C61728F0C61BF6
:100330000DE20093150206C0062F0C1BC02F00E231
:10034000009315026C2F089500911202C0911302C0
:1003500020911002109111021C17200730F01C1B75
:10036000200B0DE20093140208C0C11B020B202FCA
:100370001C2F00E20093140200C008950FEF04BB8D
:1003800001BB93980E94BA02E8E30E949B020E947C
:10039000BA02ECE00E949B02E1E00E949B020E94F4
:1003A000BA02E6E00E949B02089504E40093200252
:1003B00005E60093210206E6009322020CE6009374
:1003C000230205E60093240203E60093250204E7D6
:1003D0000093260209E6009327020FE60093280205
:1003E0000EE6009329020AE300932A0200E200933A
:1003F0002B0200E200932C0200E200932D0200E2A7
:1004000000932E0200E200932F020E94080208953A
:10041000E0E80E949B020E94BA02E09120020E9442
:10042000A502E09121020E94A502E09122020E9411
:10043000A502E09123020E94A502E09124020E94FD
:10044000A502E09125020E94A502E09126020E94E9
:10045000A502E09127020E94A502E09128020E94D5
:10046000A502E09129020E94A502E0912A020E94C1
:10047000A502E0912B020E94A502E0912C020E94AD
:10048000A502E0912D020E94A502E0912E020E9499
:10049000A502E0912F020E94A5020895E0EC0E94BF
:1004A0009B020E94BA02E09130020E94A502E091F4
:1004B00031020E94A502E09132020E94A502E09161
:1004C00033020E94A502E09134020E94A502E0914D
:1004D00035020E94A502E09136020E94A502E09139
:1004E00037020E94A502E09138020E94A502E09125
:1004F00039020E94A502E0913A020E94A502E09111
:100500003B020E94A502E0913C020E94A502E091FC
:100510003D020E94A502E0913E020E94A502E091E8
:100520003F020E94A5020895E591E03019F00E9473
:10053000A502FACF0895E5BB95989498939A0E94E6
:10054000AF0293980E94B2020895E5BB959A9498E1
:10055000939A0E94AF0293980E94B20208950000FD
:1005600000000895DF93DCE30E94AF02DA95E1F723
:10057000DF910895DF93D4E10E94B202DA95E1F7AA
:10058000DF9108950AE00CD06063609316026C2F2F
:1005900007D0606360931702C063C0931802089588
:1005A000C0E0C395601BE8F7CA95600F08950FD0AF
:1005B00020F010D02AD030D005C005E4502F702F85
:1005C000802F902F0CE2602F0027A02F089503E0CA
:1005D00002170895662704E0502F03EE402F08E32A
:1005E000302FAA27992788277727012F022B09F474
:1005F00008952695179520F4730F841F951FA61F45
:10060000330F441F551F661FF0CF0027880F901F20
:10061000A01F2A2F192F089503E0402F08EE302F36
:100620000ED0502F442704E6302F09D0702F0AE057
:10063000302F05D0802F00E3010F902F089500E3A5
:100640001317240708F40895131B240B0395F8CF00
:00000001FF
