:020000020000FC
:080000000C940B010C940001AB
:1002000021E00E944F010E946E0126E00E944F01F2
:10021000F2E0EAE820C008E00EBF0FE50DBF929AB9
:1002200000E40BBF0FEF04BB01BB93980E946E016B
:1002300028E30E944F010E946E012EE00E944F01B0
:1002400021E00E944F010E946E0126E00E944F01B2
:10025000F2E0E0E878942591203019F00E945901ED
:10026000FACF0C94310148656C6C6F20576F726C3B
:10027000642100004E69732046545721212121003A
:100280005265736574206D6521004168686868680F
:10029000212044656A6C696774203A29000025BBF7
:1002A00095989498939A0E94630193980E9466018E
:1002B000089525BB959A9498939A0E946301939808
:1002C0000E94660108950000000008951F931CE33A
:1002D0000E9463011A95E1F71F9108951F9314E19D
:0C02E0000E9466011A95E1F71F91089535
:00000001FF
