:020000020000FC
:1000000008E00EBF0FE50DBF0FEF04BB01BB9398D7
:100010000E94500028E30E9431000E9450002EE010
:100020000E94310021E00E9431000E94500026E031
:100030000E943100F0E0E6E52591203019F00E94A1
:100040003B00FACF0C94220048656C6C6F20576F10
:10005000726C642100004E6973204654572121219F
:10006000210025BB95989498939A0E9445009398F7
:100070000E944800089525BB959A9498939A0E94EF
:10008000450093980E9448000895000000000895DC
:100090001F931CE30E9445001A95E1F71F910895F4
:1000A0001F9314E10E9448001A95E1F71F910895EB
:00000001FF
